:100000000C9446010C945A010C945A010C945A0118
:100010000C945A010C945A010C945A010C945A01F4
:100020000C945A010C945A010C945A010C945A01E4
:100030000C945A010C945A010C945A010C945A01D4
:100040000C945A010C945A010C945A010C945A01C4
:100050000C945A010C945A010C945A010C94080403
:100060000C945A010C945A010C945A010C945A01A4
:100070000C945A010C945A010C945A010C945A0194
:100080000C945A010C945A010C945A010C945A0184
:100090000C945A010C945A010C945A010C945A0174
:1000A0000C945A010C945A010C945A010C945A0164
:1000B0000C945A010C945A010C945A010C945A0154
:1000C0000C945A010C945A010C945A010C945A0144
:1000D0000C945A010C945A010C945A010C945A0134
:1000E0000C945A010C9488010C9480010C948401A6
:1000F0000C94A7010C94BA010C948C010C94C402CA
:100100000C947A010C948F010C947D020C94FB02E8
:100110000C94A3010C949F010C94B1010C949501D3
:100120000C9405030C94BA020C94AD010C94BB0121
:100130000C94F1020C94CE020C94A0020C94DD02FB
:100140000C9499010C94BF010C9496020C94B0028B
:100150000C948C020C94A8020C94E7020C9482027A
:100160000C9475020C940F030C94B501000021004F
:10017000240027002A002D00300033000101000078
:10018000040107010A0100002200250028002B00BD
:100190002E003100340002010000050108010B01AE
:1001A000000020002300260029002C002F00320030
:1001B0000001000003010601090105050505070509
:1001C00008080808020202020A0A080804040404D3
:1001D00001010101010101010303030303030303FF
:1001E000040707070C0C0C0C0C0C0C0C020202028E
:1001F00006060606060606060B0B0B0B0B0B0B0B77
:100200000102102020080810204010204080020128
:10021000020108040201010204081020408080400D
:10022000201008040201800402018040201008040C
:1002300002010804020101020408102040800102AA
:1002400004081020408000000A0B02090C0D0E0863
:10025000070304010000000000000000000000008F
:10026000000000000000000000000000000000008E
:10027000000012111000000000000000000000004B
:1002800000000000000000000000000011241FBE5C
:10029000CFEFD1E2DEBFCDBF00E00CBF22E0A0E097
:1002A000B2E001C01D92AB30B207E1F70E945204E8
:1002B0000C94E2060C9400008150823108F05AC080
:1002C000E82FF0E08827E859FE4F8F4F0C94DA06AC
:1002D00088018C017A0180018401BA018F019501A6
:1002E00099019F01A301A701AD01B101BA01B501B7
:1002F000BB01BF01809180008F77809380000895BB
:10030000809180008F7DF9CF80918000877FF5CF2D
:1003100084B58F7784BD089584B58F7DFBCF8091A0
:10032000B0008F778093B00008958091B0008F7DEA
:10033000F9CF809190008F778093900008958091FD
:1003400090008F7DF9CF80919000877FF5CF8091CD
:10035000A0008F778093A00008958091A0008F7DEA
:10036000F9CF8091A000877FF5CF809120018F7712
:10037000809320010895809120018F7DF9CF809195
:100380002001877FF5CFCF93DF93282F30E0F9014D
:10039000EA5BFD4F8491F901E050FE4FD491F901E1
:1003A000E654FE4FC491CC23A1F081110E945C0160
:1003B000EC2FF0E0EE0FFF1FE056FE4FA591B49139
:1003C000EC91ED2381E090E009F480E0DF91CF91A2
:1003D000089580E090E0FACF1F93CF93DF93282F0A
:1003E00030E0F901EA5BFD4F8491F901E050FE4FE6
:1003F000D491F901E654FE4FC491CC23A9F0162FF5
:1004000081110E945C01EC2FF0E0EE0FFF1FEA5714
:10041000FE4FA591B4918FB7F894EC91111108C0DB
:10042000D095DE23DC938FBFDF91CF911F9108958C
:10043000DE2BF8CFCF93DF9390E0FC01E050FE4F2E
:10044000249186549E4FFC0184918823D1F090E042
:10045000880F991FFC01E459FE4FA591B491FC014E
:10046000EA57FE4FC591D49161110EC09FB7F89421
:100470008C91E22FE0958E238C932881E223E883F0
:100480009FBFDF91CF9108958FB7F894EC91E22B45
:10049000EC938FBFF6CF1F93CF93DF93182FEB0111
:1004A00061E00E941A02E12FF0E0EA5BFD4FE49167
:1004B000E150E23108F0B3C0F0E08827ED59FD4F7C
:1004C0008F4F0C94DA0675027D0282028C0296022E
:1004D0000F03A002A802B002BA02C402CE02DD02DB
:1004E000E7020F03F102FB02050384B5806884BDB7
:1004F000C7BDDF91CF911F91089584B5806284BDFF
:10050000C8BDF7CF80918000806880938000D09331
:100510008900C0938800EDCF809180008062809335
:100520008000D0938B00C0938A00E3CF809180003D
:10053000886080938000D0938D00C0938C00D9CFC9
:100540008091B00080688093B000C093B300D1CF99
:100550008091B00080628093B000C093B400C9CF96
:1005600080919000806880939000D0939900C09310
:100570009800BFCF80919000806280939000D093CC
:100580009B00C0939A00B5CF8091900088608093C3
:100590009000D0939D00C0939C00ABCF8091A000B1
:1005A00080688093A0008091A0008F7B8093A00042
:1005B000D093A900C093A8009CCF8091A000806236
:1005C0008093A000D093AB00C093AA0092CF8091FB
:1005D000A00088608093A000D093AD00C093AC00D1
:1005E00088CF80912001806880932001D0932901D9
:1005F000C09328017ECF80912001806280932001EA
:10060000D0932B01C0932A0174CF80912001886080
:1006100080932001D0932D01C0932C016ACF60E01C
:10062000812FDF91CF911F910C94EC0161E088E064
:100630000E94EC0160E087E00E94EC016CE370E056
:1006400086E00E944B0260E082E00E94EC0160E0E4
:1006500084E00E94EC016CE370E085E00C944B02B6
:1006600061E088E00E94EC0160E087E00E94EC011C
:100670006CE670E086E00E944B0260E082E00E943F
:10068000EC0161E084E00E94EC016CE670E085E042
:100690000C944B023FB7F8948091070290910802A6
:1006A000A0910902B0910A0226B5A89B05C02F3F70
:1006B00019F00196A11DB11D3FBFBA2FA92F982F88
:1006C0008827BC01CD01620F711D811D911D42E083
:1006D000660F771F881F991F4A95D1F708958F924B
:1006E0009F92AF92BF92CF92DF92EF92FF926B01F7
:1006F0007C010E944A034B015C01C114D104E10456
:10070000F104B9F00E944A03681979098A099B0922
:10071000683E73408105910580F321E0C21AD1083B
:10072000E108F10888EE880E83E0981EA11CB11C38
:10073000E4CFFF90EF90DF90CF90BF90AF909F906D
:100740008F9008950F931F93CF93DF938C01EB014C
:1007500060E088E00E94EC0161E087E00E94EC012B
:10076000B80186E00E944B0261E082E00E94EC0149
:1007700060E084E00E94EC01BE0185E0DF91CF9152
:100780001F910F910C944B020F931F93CF93DF9304
:100790008C01EB0160E088E00E94EC0160E087E002
:1007A0000E94EC01B80186E00E944B0261E082E009
:1007B0000E94EC0160E084E00E94EC01BE0185E053
:1007C000DF91CF911F910F910C944B020F931F93C8
:1007D000CF93DF938C01EB0161E088E00E94EC0194
:1007E00060E087E00E94EC01B80186E00E944B02C5
:1007F00061E082E00E94EC0160E084E00E94EC0194
:10080000BE0185E0DF91CF911F910F910C944B02B7
:100810001F920F920FB60F9211242F933F938F9335
:100820009F93AF93BF938091030290910402A09194
:100830000502B09106023091020223E0230F2D370A
:1008400058F50196A11DB11D209302028093030269
:1008500090930402A0930502B093060280910702D0
:1008600090910802A0910902B0910A020196A11D7F
:10087000B11D8093070290930802A0930902B093E0
:100880000A02BF91AF919F918F913F912F910F904D
:100890000FBE0F901F90189526E8230F0296A11DFA
:1008A000B11DD2CF789484B5826084BD84B5816057
:1008B00084BD85B5826085BD85B5816085BD80912B
:1008C0006E00816080936E001092810080918100A3
:1008D000826080938100809181008160809381009B
:1008E000809180008160809380008091B10084605D
:1008F0008093B1008091B00081608093B0008091BE
:10090000910082608093910080919100816080933A
:100910009100809190008160809390008091A1006F
:1009200082608093A1008091A10081608093A100EA
:100930008091A00081608093A0008091210182605D
:100940008093210180912101816080932101809118
:10095000200181608093200180917A0084608093DF
:100960007A0080917A00826080937A0080917A0088
:10097000816080937A0080917A00806880937A0009
:100980001092C10061E088E00E941A0261E087E0F5
:100990000E941A0261E082E00E941A0261E084E093
:1009A0000E941A0260E087E30E941A0260E088E376
:1009B0000E941A0260E089E30E941A0260E08AE362
:1009C0000E941A02C091000260E08C2F0E941A025D
:1009D00060E088E00E94EC0160E087E00E94EC01AA
:1009E00060E082E00E94EC0160E084E00E94EC01A3
:1009F00061E087E30E94EC0161E088E30E94EC0182
:100A000061E089E30E94EC0161E08AE30E94EC016D
:100A100061E08C2F0E94EC016EE370E080E490E0D6
:100A20000E94E60364EF71E080E090E00E946F03B3
:100A300087E30E94C30188E30E94C30189E30E9407
:100A4000C3018AE30E94C301809100020E94C30196
:100A5000B82E809300029093010288E30E94C301A4
:100A60008C0187E30E94C301EC0189E30E94C3016A
:100A70007C018AE30E94C3016C018B2D0E94C3019B
:100A80005C0181E090E0209711F090E080E08E2101
:100A90009F21892B11F00E94160381E090E0E11460
:100AA000F10411F090E080E08C239D23892B31F03C
:100AB0006CE370E08CE390E00E94C40381E090E07E
:100AC00098012C293D29232B11F090E080E08A2108
:100AD0009B21892B31F067E370E08AE390E00E946C
:100AE000E60388248394912CC114D10411F0912C35
:100AF000812CC80188219921892B31F06CE670E0A6
:100B00008CE690E00E94A20366246394712C011588
:100B1000110511F0712C612CC60186219721892BBA
:100B200011F00E9430030C231D230E211F21C0222F
:100B3000D122CD2831F06EE370E080E490E00E9495
:100B4000E603CE21DF21AC22BD228A209B20682033
:100B50007920672809F46CCF6CE370E08CE390E0B7
:100B60000E94C40368EC70E080E090E00E946F0394
:100B700087E30E94C30188E30E94C30189E30E94C6
:100B8000C3018AE30E94C301809100020E94C30155
:100B9000B82E809300029093010288E30E94C30163
:100BA000EC0187E30E94C3016C0189E30E94C30149
:100BB0008C018AE30E94C3017C018B2D0E94C3013A
:100BC0005C0181E090E0C114D10411F090E080E07C
:100BD00080239123892B11F00E94160381E090E07D
:100BE0000115110511F090E080E08C219D21892BE9
:100BF00031F06CE370E08CE390E00E94C40381E08C
:100C000090E09E012E293F29232B11F090E080E0F7
:100C1000A822B922AB2831F067E370E08AE390E0C4
:100C20000E94E603C8018E219F2121E030E0209739
:100C300011F030E020E082239323892B09F4B0C027
:100C40000E943003CE018C219D21802391238E218F
:100C50009F21892B09F48CCF64E670E084E690E054
:100C60000E94A20387E30E94C30188E30E94C3019C
:100C700089E30E94C3018AE30E94C30180910002BC
:100C80000E94C301B82E809300029093010288E372
:100C90000E94C301EC0187E30E94C3016C0189E358
:100CA0000E94C3017C018AE30E94C3018C018B2D49
:100CB0000E94C3015C0181E090E0C114D10411F0F5
:100CC00090E080E08E219F21892B11F00E94160375
:100CD00081E090E0E114F10411F090E080E08C21DB
:100CE0009D21892B31F06CE370E08CE390E00E9451
:100CF000C40381E090E09E01202B312B232B11F0C7
:100D000090E080E0A822B922AB2831F067E370E0E0
:100D10008AE390E00E94E60381E090E0011511056E
:100D200011F090E080E08C239D23892B31F06CE65C
:100D300070E08CE690E00E94A20381E090E02097B2
:100D400011F090E080E080239123892B11F00E9424
:100D50003003CE018C219D218E219F218023912360
:100D6000892B09F47FCF68EC70E080E090E00E946E
:100D70006F0360E088E00E94EC0160E087E00E9481
:100D8000EC0160E082E00E94EC0160E084E00E94FF
:100D9000EC0160E271EA8FEF9FEF0E946F0362CF78
:100DA000209709F44FCF6CE670E08CE690E00E944B
:100DB000A20348CFEE0FFF1F881F8BBF0790F6914D
:080DC000E02D1994F894FFCF17
:00000001FF
